:020000040800F2
:1000000000C0002091160008D5160008D51600087B
:10001000D5160008D5160008D51600080000000007
:10002000000000000000000000000000D5160008DD
:10003000D516000800000000D5160008D5160008E7
:10004000D5160008D5160008D5160008D5160008E4
:10005000D5160008D5160008D5160008D5160008D4
:10006000D5160008D5160008D5160008D5160008C4
:10007000D5160008D5160008D5160008D5160008B4
:10008000D5160008D5160008D5160008D5160008A4
:10009000D5160008D5160008D5160008D516000894
:1000A000D5160008D5160008D5160008D516000884
:1000B000D5160008D5160008D5160008D516000874
:1000C000D5160008D5160008D5160008D516000864
:1000D000D5160008D5160008D5160008D516000854
:1000E000D5160008D5160008D5160008D516000844
:1000F000D5160008D5160008D5160008D516000834
:10010000D5160008D5160008D5160008D516000823
:10011000D5160008D5160008D5160008D516000813
:10012000D5160008D5160008D5160008D516000803
:1001300000000000000000000000000000000000BF
:1001400000000000000000000000000000000000AF
:10015000000000000000000000000000000000009F
:10016000000000000000000000000000000000008F
:10017000000000000000000000000000000000007F
:10018000000000000000000000000000000000006F
:10019000000000000000000000000000000000005F
:1001A000000000000000000000000000000000004F
:1001B000000000000000000000000000000000003F
:1001C000000000000000000000000000000000002F
:1001D000000000000000000000000000000000001F
:0401E0005FF8E0F1F3
:1001E40080B588B000AF786039604FF020004FF0E0
:1001F400010100F0CFFF4FF480533B814FF0020325
:10020400BB724FF01003FB7207F108031F48194635
:1002140000F012FA1E4B3B611E4BFB601E4BBB6190
:100224004FF000037B614FF000037B610EE03869FF
:10023400F96801F0DBF803461846B96901F08AF958
:100244000346BB617B6903F101037B617B69052B79
:10025400EDDD0E4B4FF480521A61104BFB6103E04D
:10026400FB6903F1FF33FB61FB69002BF8D1074BFA
:100274004FF080521A61094BFB6103E0FB6903F103
:10028400FF33FB61FB69002BF8D1C3E70014014085
:10029400000028420000B8410000E04020A107000F
:1002A40080B500AF154B154A126842F001021A607E
:1002B400124A124B5968124B0B4053600F4A0F4BB2
:1002C4001B6823F0847323F4803313600B4B0B4AB5
:1002D400126822F480221A60084B084A526822F4F9
:1002E400FE025A60054B4FF41F029A6000F07EF83C
:1002F400044B4FF000629A6080BD00BF00100240C2
:100304000000FFF800ED00E080B485B000AF4FF0CE
:100314000003FB604FF00003BB604FF000037B6001
:100324002D4B5B6803F00C03FB60FB68042B07D0C8
:10033400082B09D0002B35D1284B294A1A6035E007
:10034400264B274A1A6031E0234B5B6803F4701391
:10035400BB60214B5B6803F480337B60BB684FEA6E
:10036400934303F10203BB607B68002B06D1BB6897
:100374001C4A02FB03F2194B1A6017E0164B5B6828
:1003840003F40033002B06D0BB68164A02FB03F2C9
:10039400124B1A600AE0BB68114A02FB03F20F4BCE
:1003A4001A6003E00D4B0E4A1A6000BF0A4B5B68EB
:1003B40003F0F0034FEA13130B4AD35CDBB2FB6088
:1003C400064B1A68FB6822FA03F2044B1A6007F121
:1003D4001407BD4680BC7047001002400000002096
:1003E40000127A0000093D000400002080B500AF2F
:1003F40000F002F880BD00BF80B483B000AF4FF0BE
:1004040000037B604FF000033B603B4B3A4A1268A9
:1004140042F480321A60384B1B6803F400333B60AB
:100424007B6803F101037B603B68002B03D17B688D
:10043400B3F5A06FEFD1304B1B6803F40033002BEE
:1004440003D04FF001033B6002E04FF000033B6038
:100454003B68012B4BD1294B284A126842F0100209
:100464001A60264B254A126822F003021A60234BB5
:10047400224A126842F002021A601F4B1E4A526856
:100484005A601D4B1C4A52685A601B4B1A4A5268E8
:1004940042F480625A60184B174A526822F47C1264
:1004A4005A60154B144A526842F4E8125A60124BCF
:1004B400114A126842F080721A6000BF0E4B1B682A
:1004C40003F00073002BF9D00B4B0B4A526822F057
:1004D40003025A60084B084A526842F002025A600A
:1004E40000BF054B5B6803F00C03082BF9D107F13F
:1004F4000C07BD4680BC704700100240002002403B
:1005040080B582B000AF78607A683C4B9A420CD1D7
:100514004FF004004FF0010100F07CFE4FF00400A6
:100524004FF0000100F076FE64E07A68344B9A42A2
:100534000CD14FF008004FF0010100F06BFE4FF0BA
:1005440008004FF0000100F065FE53E07A682D4B7F
:100554009A420CD14FF010004FF0010100F05AFE06
:100564004FF010004FF0000100F054FE42E07A68B2
:10057400254B9A420CD14FF020004FF0010100F0BE
:1005840049FE4FF020004FF0000100F043FE31E03F
:100594007A681E4B9A420CD14FF040004FF0010193
:1005A40000F038FE4FF040004FF0000100F032FE42
:1005B40020E07A68164B9A420CD14FF080004FF03D
:1005C400010100F027FE4FF080004FF0000100F021
:1005D40021FE0FE07A680F4B9A420BD14FF48070E2
:1005E4004FF0010100F016FE4FF480704FF000014F
:1005F40000F010FE07F10807BD4680BD0008014069
:10060400000C01400010014000140140001801409A
:10061400001C01400020014080B500AF4FF00100F4
:100624004FF0010100F0F6FD4FF001004FF0000122
:1006340000F0F0FD80BD00BF80B489B000AF7860E9
:1006440039604FF00003FB614FF000033B614FF052
:100654000003BB614FF00003FB604FF000037B61BC
:100664004FF00003BB603B68DB7803F00F03FB61D2
:100674003B68DB7803F01003002B04D03B689B78C5
:10068400FA691343FB613B681B88DBB2002B4ED035
:100694007B681B687B614FF00003BB6141E0BB6971
:1006A4004FF0010202FA03F3FB603B681B881A4611
:1006B400FB6813403B613A69FB689A422DD1BB69E0
:1006C4004FEA8303FB60FB684FF00F0202FA03F367
:1006D400BB60BB686FEA03037A6913407B61FB6804
:1006E400FA6902FA03F37A6913437B613B68DB78A6
:1006F400282B07D1BB694FF0010202FA03F27B6891
:100704005A610AE03B68DB78482B06D1BB694FF09D
:10071400010202FA03F27B681A61BB6903F1010367
:10072400BB61BB69072BBAD97B687A691A603B68DD
:100734001B88FF2B53D97B685B687B614FF00003F8
:10074400BB6146E0BB6903F108034FF0010202FA02
:1007540003F3FB603B681B881A46FB6813403B614C
:100764003A69FB689A4230D1BB694FEA8303FB6064
:10077400FB684FF00F0202FA03F3BB60BB686FEA39
:1007840003037A6913407B61FB68FA6902FA03F395
:100794007A6913437B613B68DB78282B08D1BB69FA
:1007A40003F108034FF0010202FA03F27B685A6175
:1007B4003B68DB78482B08D1BB6903F108034FF091
:1007C400010202FA03F27B681A61BB6903F10103B7
:1007D400BB61BB69072BB5D97B687A695A6007F19D
:1007E4002407BD4680BC704780B483B000AF7860F6
:1007F4007B684FF6FF721A807B684FF002029A7092
:100804007B684FF00402DA7007F10C07BD4680BC28
:10081400704700BF80B485B000AF78600B467B8022
:100824004FF00003FB737B689A687B881340002BAE
:1008340003D04FF00103FB7302E04FF00003FB739E
:10084400FB7B184607F11407BD4680BC704700BF08
:1008540080B483B000AF78607B689B689BB2184615
:1008640007F10C07BD4680BC704700BF80B485B05B
:1008740000AF78600B467B804FF00003FB737B680E
:10088400DA687B881340002B03D04FF00103FB731D
:1008940002E04FF00003FB73FB7B184607F11407DB
:1008A400BD4680BC704700BF80B483B000AF7860A1
:1008B4007B68DB689BB2184607F10C07BD4680BC19
:1008C400704700BF80B483B000AF78600B467B8074
:1008D4007A887B681A6107F10C07BD4680BC7047B3
:1008E40080B483B000AF78600B467B807A887B68E5
:1008F4005A6107F10C07BD4680BC704780B483B0D1
:1009040000AF786013460A467A807B707B78002BB0
:1009140003D07A887B681A6102E07A887B685A611E
:1009240007F10C07BD4680BC704700BF80B483B09C
:1009340000AF78600B467B807A887B68DA6007F1C9
:100944000C07BD4680BC704780B485B000AF7860AA
:100954000B467B804FF48033FB607B88FA6813433B
:10096400FB607B68FA689A617A887B689A617B6825
:10097400FA689A617B689B69FB607B689B69FB6092
:1009840007F11407BD4680BC704700BF80B485B032
:1009940000AF02460B46FA71BB714FF00003FB60D7
:1009A4000C4B1B68FB60FA684FF680731340FB60C6
:1009B400FB794FEA0313FA681343FB60BB79FA68C7
:1009C4001343FB60034BFA681A6007F11407BD4632
:1009D40080BC70470000014080B483B000AF034680
:1009E400FB71044BFA791A6007F10C07BD4680BC11
:1009F400704700BF1C00204280B487B000AF78600D
:100A04000B46FB704FF000033B614FF00003FB60AB
:100A14004FF000037B614FF00003BB607B68002B49
:100A240003DA344BDB697B6102E0324B5B687B6148
:100A34007B6803F470234FEA1343BB607B684FEA7F
:100A440003434FEA13433B617B6803F44013B3F55C
:100A5400401F0AD17B6923F070637B61254B254AD3
:100A6400526822F070625A6026E07B6803F48013B7
:100A7400002B10D0BB684FF0030202FA03F3FB60B3
:100A8400FB686FEA03037A6913407B617B6943F077
:100A940070637B6110E07B684FEA53534FEA0313A2
:100AA4003A6902FA03F36FEA03037A6913407B613C
:100AB4007B6943F070637B61FB78002B0AD07B6811
:100AC4004FEA53534FEA03133A6902FA03F37A697C
:100AD40013437B617B68002B03DA064B7A69DA6186
:100AE40002E0044B7A695A6007F11C07BD4680BCDA
:100AF400704700BF0000014090B484B000AF0246CC
:100B04000B46FA71BB714FF00003FB60BB7903F035
:100B140003034FEA83034FF00F0202FA03F3FB606F
:100B24001A4BBA794FEA9202D2B21849B8794FEA0D
:100B34009000C0B200F1020051F82000F9686FEA99
:100B44000101014002F1020243F822100F4BBA796D
:100B54004FEA9202D2B20D49B8794FEA9000C0B27E
:100B640000F1020051F82000FC79B97901F0030189
:100B74004FEA810104FA01F1014302F1020243F850
:100B8400221007F11007BD4690BC704700000140D9
:100B940080B483B000AF7860034B7A681A6007F1C1
:100BA4000C07BD4680BC7047DC00204280B400AF17
:100BB400134B134A126842F001021A60104A104B98
:100BC4005968104B0B4053600D4A0D4B1B6823F0C2
:100BD400847323F480331360094B094A126822F4A6
:100BE40080221A60064B064A526822F4FE025A60BA
:100BF400034B4FF41F029A60BD4680BC704700BF90
:100C0400001002400000FFF880B483B000AF7860A9
:100C1400134B134A126822F480321A60104B104AA4
:100C2400126822F480221A607B68B3F5803F03D0F7
:100C3400B3F5802F07D00DE0094B094A126842F43E
:100C440080321A6007E0064B054A126842F4A0227B
:100C54001A6000E000BF07F10C07BD4680BC704776
:100C64000010024080B582B000AF4FF000033B603B
:100C74004FF00003FB714FF00003BB714FF03100E4
:100C840000F038FB0346BB713B6803F101033B6092
:100C94003B68B3F5A06F02D0BB79002BEED04FF0C8
:100CA400310000F027FB0346002B03D04FF0010373
:100CB400FB7102E04FF00003FB71FB79184607F16A
:100CC4000807BD4680BD00BF80B485B000AF0346B1
:100CD400FB714FF00003FB600A4B1B68FB60FB6871
:100CE40023F0F803FB60FB794FEAC303FA6813436C
:100CF400FB60044BFA681A6007F11407BD4680BC18
:100D0400704700BF0010024080B483B000AF0346B8
:100D1400FB71044BFA791A6007F10C07BD4680BCDD
:100D2400704700BF0000424280B485B000AF7860D5
:100D340039604FF00003FB600A4B5B68FB60FB68A3
:100D440023F47C13FB607A683B681343FA6813430B
:100D5400FB60044BFA685A6007F11407BD4680BC77
:100D6400704700BF0010024080B483B000AF034658
:100D7400FB71044BFA791A6007F10C07BD4680BC7D
:100D8400704700BF6000424280B485B000AF786015
:100D94004FF00003FB60094B5B68FB60FB6823F0CA
:100DA4000303FB60FA687B681343FB60034BFA6838
:100DB4005A6007F11407BD4680BC7047001002401A
:100DC40080B400AF044B5B68DBB203F00C03DBB20E
:100DD4001846BD4680BC70470010024080B485B000
:100DE40000AF78604FF00003FB60094B5B68FB6069
:100DF400FB6823F0F003FB60FA687B681343FB6035
:100E0400034BFA685A6007F11407BD4680BC70476B
:100E14000010024080B485B000AF78604FF000034A
:100E2400FB60094B5B68FB60FB6823F4E063FB60D9
:100E3400FA687B681343FB60034BFA685A6007F156
:100E44001407BD4680BC70470010024080B485B0D2
:100E540000AF78604FF00003FB600A4B5B68FB60F7
:100E6400FB6823F46053FB607B684FEAC303FA68B2
:100E74001343FB60034BFA685A6007F11407BD463D
:100E840080BC70470010024080B483B000AF0246BB
:100E94000B46FA71BB71BB79002B08D00C4B0C4A82
:100EA4001278D1B2FA790A43D2B21A700AE0084B26
:100EB400074A1278D1B2FA796FEA0202D2B20A4032
:100EC400D2B21A7007F10C07BD4680BC704700BF50
:100ED4000910024080B483B000AF7860034B7A6895
:100EE4001A6007F10C07BD4680BC7047D800424227
:100EF40080B485B000AF78604FF00003FB60094B0D
:100F04005B68FB60FB6823F44043FB60FA687B6822
:100F14001343FB60034BFA685A6007F11407BD469C
:100F240080BC70470010024080B483B000AF034619
:100F3400FB710F4B4FF000021A700D4B4FF0000283
:100F44001A70FB79012B02D0042B05D009E0084B61
:100F54004FF001021A7005E0054B4FF005021A70BC
:100F640000E000BF07F10C07BD4680BC704700BF1E
:100F74002010024080B483B000AF0346FB71044BE1
:100F8400FA791A6007F10C07BD4680BC704700BFB0
:100F94008004424280B483B000AF7860054B054AB8
:100FA400116A7A680A431A6207F10C07BD4680BCCD
:100FB400704700BF0010024080B483B000AF034606
:100FC400FB71044BFA791A6007F10C07BD4680BC2B
:100FD400704700BF3C04424280B487B000AF7860E1
:100FE4004FF000037B614FF000033B614FF00003BF
:100FF400FB604FF00003BB60514B5B6803F00C03D4
:101004007B617B69042B07D0082B09D0002B35D1D9
:101014007B684C4A1A6035E07B684A4A1A6031E0C2
:10102400474B5B6803F470133B61454B5B6803F407
:101034008033FB603B694FEA934303F102033B6156
:10104400FB68002B06D13B693F4A02FB03F27B6835
:101054001A6017E03A4B5B6803F40033002B06D0A8
:101064003B69394A02FB03F27B681A600AE03B6978
:10107400344A02FB03F27B681A6003E07B68314A5E
:101084001A6000BF2E4B5B6803F0F0037B617B6941
:101094004FEA13137B612D4A7B69D3181B78DBB2AB
:1010A400BB607B681A68BB6822FA03F27B685A60EB
:1010B400234B5B6803F4E0637B617B694FEA132392
:1010C4007B61224A7B69D3181B78DBB2BB607B68E7
:1010D4005A68BB6822FA03F27B689A60184B5B6813
:1010E40003F460537B617B694FEAD3237B61174A26
:1010F4007B69D3181B78DBB2BB607B685A68BB681A
:1011040022FA03F27B68DA600D4B5B6803F4404318
:101114007B617B694FEA93337B610D4A7B69D3180A
:101124001B78DBB2BB607B68DA68BB68B2FBF3F2A6
:101134007B681A6107F11C07BD4680BC704700BF7D
:101144000010024000127A0000093D001400002043
:101154002400002080B483B000AF78600B46FB709D
:10116400FB78002B06D00A4B094A51697A680A4376
:101174005A6107E0064B064A51697A686FEA02022F
:101184000A405A6107F10C07BD4680BC704700BF96
:101194000010024080B483B000AF78600B46FB704F
:1011A400FB78002B06D00A4B094A91697A680A43F6
:1011B4009A6107E0064B064A91697A686FEA02026F
:1011C4000A409A6107F10C07BD4680BC704700BF16
:1011D4000010024080B483B000AF78600B46FB700F
:1011E400FB78002B06D00A4B094AD1697A680A4376
:1011F400DA6107E0064B064AD1697A686FEA0202AF
:101204000A40DA6107F10C07BD4680BC704700BF95
:101214000010024080B483B000AF78600B46FB70CE
:10122400FB78002B06D00A4B094AD1687A680A4336
:10123400DA6007E0064B064AD1687A686FEA020270
:101244000A40DA6007F10C07BD4680BC704700BF56
:101254000010024080B483B000AF78600B46FB708E
:10126400FB78002B06D00A4B094A11697A680A43B5
:101274001A6107E0064B064A11697A686FEA0202AE
:101284000A401A6107F10C07BD4680BC704700BFD5
:101294000010024080B483B000AF0346FB71044BDE
:1012A400FA791A6007F10C07BD4680BC704700BF8D
:1012B4004004424280B483B000AF0346FB71044B48
:1012C400FA791A6007F10C07BD4680BC704700BF6D
:1012D4004C00424280B483B000AF0346FB71044B20
:1012E400FA791A7007F10C07BD4680BC704700BF3D
:1012F4000710024080B487B000AF0346FB714FF083
:101304000003FB604FF000037B614FF00003FB74AC
:10131400FB794FEA5313DBB2FB60FB68012B03D16B
:10132400134B1B687B6109E0FB68022B03D1104B54
:101334001B6A7B6102E00E4B5B6A7B61FB7903F005
:101344001F03FB60FB687A6922FA03F303F00103CD
:10135400002B03D04FF00103FB7402E04FF00003B5
:10136400FB74FB7C184607F11C07BD4680BC704724
:101374000010024080B400AF044B044A526A42F0A9
:1013840080725A62BD4680BC704700BF00100240A4
:1013940080B485B000AF0346FB714FF00003FB73CC
:1013A400094B9A68FB791340002B03D04FF00103DB
:1013B400FB7302E04FF00003FB73FB7B184607F15D
:1013C4001407BD4680BC70470010024080B483B04F
:1013D40000AF0346FB71044BFA791A7007F10C074E
:1013E400BD4680BC704700BF0A1002404FF0FF0C9E
:1013F4001CEAD0521EBF1CEAD15392EA0C0F93EAA6
:101404000C0F6FD01A4480EA010C400218BF5FEA47
:1014140041211ED04FF0006343EA501043EA5111BA
:10142400A0FB01310CF00040B1F5000F3EBF4900B4
:1014340041EAD3715B0040EA010062F17F02FD2AB8
:101444001DD8B3F1004F40EBC25008BF20F001009B
:10145400704790F0000F0CF0004C08BF49024CEAB2
:10146400502040EA51207F3AC2BFD2F1FF0340EA44
:10147400C250704740F400004FF00003013A5DDCB5
:1014840012F1190FDCBF00F000407047C2F10002F6
:10149400410021FA02F1C2F1200200FA02FC5FEAE3
:1014A400310040F1000053EA4C0308BF20EADC702D
:1014B400704792F0000F00F0004C02BF400010F49F
:1014C400000F013AF9D040EA0C0093F0000F01F04C
:1014D400004C02BF490011F4000F013BF9D041EA6E
:1014E4000C018FE70CEAD15392EA0C0F18BF93EA70
:1014F4000C0F0AD030F0004C18BF31F0004CD8D19A
:1015040080EA010000F00040704790F0000F17BF20
:1015140090F0004F084691F0000F91F0004F14D066
:1015240092EA0C0F01D142020FD193EA0C0F03D1BE
:101534004B0218BF084608D180EA010000F00040C1
:1015440040F0FE4040F40000704740F0FE4040F49C
:10155400400070474FF0FF0C1CEAD0521EBF1CEA3B
:10156400D15392EA0C0F93EA0C0F69D0A2EB030259
:1015740080EA010C49024FEA402037D04FF08053F3
:1015840043EA111143EA10130CF000408B4238BFB8
:101594005B0042F17D024FF4000C8B4224BF5B1AC6
:1015A40040EA0C00B3EB510F24BFA3EB510340EA14
:1015B4005C00B3EB910F24BFA3EB910340EA9C00C2
:1015C400B3EBD10F24BFA3EBD10340EADC001B0132
:1015D40018BF5FEA1C1CE0D1FD2A3FF650AF8B42D6
:1015E40040EBC25008BF20F0010070470CF0004CE3
:1015F4004CEA50207F32C2BFD2F1FF0340EAC2500E
:10160400704740F400004FF00003013A37E792F0CE
:10161400000F00F0004C02BF400010F4000F013A2C
:10162400F9D040EA0C0093F0000F01F0004C02BF27
:10163400490011F4000F013BF9D041EA0C0195E790
:101644000CEAD15392EA0C0F08D142027FF47DAF29
:1016540093EA0C0F7FF470AF084676E793EA0C0F19
:1016640004D14B023FF44CAF08466EE730F0004C17
:1016740018BF31F0004CCAD130F000427FF45CAFA7
:1016840031F000437FF43CAF5FE700BF002103E08B
:101694000A4B5B584350043109480A4B42189A429A
:1016A400F6D3094A02E0002342F8043B074B9A426E
:1016B400F9D3FEF7F5FDFEF793FD7047D816000841
:1016C400000000202800002028000020280000201E
:0416D400FEE700002D
:1016D80000A24A0400000000000000000102030408
:1016E80006070809000000000102030401020304C0
:0816F8000607080902040608B8
:040000050800169148
:00000001FF
