:020000040800F2
:100000000000012055020008000000000000000070
:100010008902000889020008890200080000000027
:10002000000000000000000000000000890200083D
:100030008902000800000000890200088902000807
:100040008902000889020008890200088902000864
:100050008902000889020008890200088902000854
:100060008902000889020008890200088902000844
:100070008902000889020008890200088902000834
:1000800089020008890200088902000800000000B7
:1000900089020008000000008902000889020008A7
:1000A0008902000889020008890200088902000804
:1000B00089020008890200088902000889020008F4
:1000C00089020008890200088902000889020008E4
:1000D00089020008890200088902000889020008D4
:1000E00089020008890200088902000889020008C4
:1000F00089020008890200088902000889020008B4
:1001000089020008890200088902000889020008A3
:100110008902000889020008890200088902000893
:100120008902000889020008890200088902000883
:1001300000000000000000000000000000000000BF
:1001400000000000000000000000000000000000AF
:10015000000000000000000000000000000000009F
:10016000000000000000000000000000000000008F
:10017000000000000000000000000000000000007F
:10018000000000000000000000000000000000006F
:10019000000000000000000000000000000000005F
:1001A000000000000000000000000000000000004F
:1001B000000000000000000000000000000000003F
:1001C000000000000000000000000000000000002F
:1001D0000000000000000000000000005FF8E0F1F7
:1001E00080B483B000AF164B7B60164B3B607A68DF
:1001F0003B689A4210D00BE07B681A683B681A6033
:100200003B6803F104033B607B6803F104037B60FC
:100210003A680D4B9A42EFD30C4B3B6007E03B68CA
:100220004FF000021A603B6803F104033B603A6838
:10023000074B9A42F3D307F10C07BD4680BC7047C9
:10024000901700080000002028000020280000204F
:1002500028000020684620F007018D4689B500AFD0
:10026000FFF7BEFF064A074B23F0684323F07F03E6
:1002700043F00063936000F06BF800F009F8FEE7CC
:1002800000ED00E00000000080B400AFFEE700BF1A
:1002900080B588B000AF786039604FF010004FF043
:1002A000010100F0EDFF4FF480533B814FF002035A
:1002B000BB724FF01003FB7207F108031F48194689
:1002C00000F012FA1F4B3B611F4BFB601F4BBB61E1
:1002D0004FF000037B614FF000037B610EE0386953
:1002E000F96801F005F903461846B96901F0B4F957
:1002F0000346BB617B6903F101037B617B69052BCD
:10030000EDDD0E4B4FF480521A610D4BFB6103E0A3
:10031000FB6903F1FF33FB61FB69002BF8D1074B4D
:100320004FF080521A61064BFB6103E0FB6903F159
:10033000FF33FB61FB69002BF8D1C3E700100140DC
:1003400020A10700000028420000B8410000E04062
:1003500080B500AF154B154A126842F001021A60D1
:10036000124A124B5968124B01EA030353600F4AB9
:100370000E4B1B6823F0847323F4803313600B4B04
:100380000A4A126822F480221A60084B074A52680F
:1003900022F4FE025A60054B4FF41F029A6000F0EF
:1003A0007DF8044B4FF000629A6080BD001002405F
:1003B0000000FFF800ED00E080B485B000AF4FF022
:1003C0000003FB604FF00003BB604FF000037B6055
:1003D0002D4B5B6803F00C03FB60FB68042B07D01C
:1003E000082B09D0002B35D1284B294A1A6035E05B
:1003F000264B274A1A6031E0234B5B6803F47013E5
:10040000BB60214B5B6803F480337B60BB684FEAC1
:10041000934303F10203BB607B68002B06D1BB68EA
:100420001C4A02FB03F2194B1A6017E0164B5B687B
:1004300003F40033002B06D0BB68164A02FB03F21C
:10044000124B1A600AE0BB68114A02FB03F20F4B21
:100450001A6003E00D4B0E4A1A6000BF0A4B5B683E
:1004600003F0F0034FEA13130B4AD35CDBB2FB60DB
:10047000064B1A68FB6822FA03F2044B1A6007F174
:100480001407BD4680BC70470010024000000020E9
:1004900000127A0000093D000400002080B500AF82
:1004A00000F002F880BD00BF80B483B000AF4FF011
:1004B00000037B604FF000033B603B4B3A4A1268FD
:1004C00042F480321A60384B1B6803F400333B60FF
:1004D0007B6803F101037B603B68002B03D17B68E1
:1004E000B3F5A06FEFD1304B1B6803F40033002B42
:1004F00003D04FF001033B6002E04FF000033B608C
:100500003B68012B4BD1294B284A126842F010025C
:100510001A60264B254A126822F003021A60234B08
:10052000224A126842F002021A601F4B1E4A5268A9
:100530005A601D4B1C4A52685A601B4B1A4A52683B
:1005400042F480625A60184B174A526822F47C12B7
:100550005A60154B144A526842F4E8125A60124B22
:10056000114A126842F080721A6000BF0E4B1B687D
:1005700003F00073002BF9D00B4B0B4A526822F0AA
:1005800003025A60084B084A526842F002025A605D
:1005900000BF054B5B6803F00C03082BF9D107F192
:1005A0000C07BD4680BC704700100240002002408E
:1005B00080B582B000AF78607A683C4B9A420CD12B
:1005C0004FF004004FF0010100F09EFE4FF00400D8
:1005D0004FF0000100F098FE64E07A68344B9A42D4
:1005E0000CD14FF008004FF0010100F08DFE4FF0EC
:1005F00008004FF0000100F087FE53E07A682D4BB1
:100600009A420CD14FF010004FF0010100F07CFE37
:100610004FF010004FF0000100F076FE42E07A68E3
:10062000254B9A420CD14FF020004FF0010100F011
:100630006BFE4FF020004FF0000100F065FE31E04E
:100640007A681E4B9A420CD14FF040004FF00101E6
:1006500000F05AFE4FF040004FF0000100F054FE51
:1006600020E07A68164B9A420CD14FF080004FF090
:10067000010100F049FE4FF080004FF0000100F052
:1006800043FE0FE07A680F4B9A420BD14FF4807013
:100690004FF0010100F038FE4FF480704FF0000180
:1006A00000F032FE07F10807BD4680BD000801409A
:1006B000000C0140001001400014014000180140EE
:1006C000001C01400020014080B500AF4FF0010048
:1006D0004FF0010100F018FE4FF001004FF0000153
:1006E00000F012FE80BD00BF80B489B000AF78601A
:1006F00039604FF00003FB614FF000033B614FF0A6
:100700000003BB614FF00003FB604FF000037B610F
:100710004FF00003BB603B68DB7803F00F03FB6125
:100720003B68DB7803F01003002B05D03B689B7817
:10073000FA6942EA0303FB613B681B8803F0FF038D
:10074000002B51D07B681B687B614FF00003BB61BD
:1007500044E0BB694FF0010202FA03F3FB603B681F
:100760001B881A46FB6802EA03033B613A69FB688F
:100770009A422FD1BB694FEA8303FB60FB684FF0BD
:100780000F0202FA03F3BB60BB686FEA03037A69E6
:1007900002EA03037B61FB68FA6902FA03F37A69F0
:1007A00042EA03037B613B68DB78282B07D1BB69F6
:1007B0004FF0010202FA03F27B685A610AE03B68DB
:1007C000DB78482B06D1BB694FF0010202FA03F235
:1007D0007B681A61BB6903F10103BB61BB69072B2D
:1007E000B7D97B687A691A603B681B88FF2B56D99A
:1007F0007B685B687B614FF00003BB6149E0BB69CC
:1008000003F108034FF0010202FA03F3FB603B68B7
:100810001B881A46FB6802EA03033B613A69FB68DE
:100820009A4232D1BB694FEA8303FB60FB684FF009
:100830000F0202FA03F3BB60BB686FEA03037A6935
:1008400002EA03037B61FB68FA6902FA03F37A693F
:1008500042EA03037B613B68DB78282B08D1BB6944
:1008600003F108034FF0010202FA03F27B685A61B8
:100870003B68DB78482B08D1BB6903F108034FF0D4
:10088000010202FA03F27B681A61BB6903F10103FA
:10089000BB61BB69072BB2D97B687A695A6007F1E3
:1008A0002407BD4680BC704780B483B000AF786039
:1008B0007B684FF6FF721A807B684FF002029A70D5
:1008C0007B684FF00402DA7007F10C07BD4680BC6C
:1008D000704700BF80B485B000AF78600B467B8066
:1008E0004FF00003FB737B689A687B8802EA03037E
:1008F000002B03D04FF00103FB7302E04FF0000325
:10090000FB73FB7B184607F11407BD4680BC70479C
:1009100080B483B000AF78607B689B689BB2184658
:1009200007F10C07BD4680BC704700BF80B485B09E
:1009300000AF78600B467B804FF00003FB737B6851
:10094000DA687B8802EA0303002B03D04FF001032F
:10095000FB7302E04FF00003FB73FB7B184607F1CB
:100960001407BD4680BC704780B483B000AF786088
:100970007B68DB689BB2184607F10C07BD4680BC5C
:10098000704700BF80B483B000AF78600B467B80B7
:100990007A887B681A6107F10C07BD4680BC7047F6
:1009A00080B483B000AF78600B467B807A887B6828
:1009B0005A6107F10C07BD4680BC704780B483B014
:1009C00000AF786013460A467A807B707B78002BF4
:1009D00003D07A887B681A6102E07A887B685A6162
:1009E00007F10C07BD4680BC704700BF80B483B0E0
:1009F00000AF78600B467B807A887B68DA6007F10D
:100A00000C07BD4680BC704780B485B000AF7860ED
:100A10000B467B804FF48033FB607B88FA6842EAA8
:100A20000303FB607B68FA689A617A887B689A6145
:100A30007B68FA689A617B689B69FB607B689B694D
:100A4000FB6007F11407BD4680BC704780B485B0D9
:100A500000AF02460B46FA71BB714FF00003FB601A
:100A60000E4B1B68FB60FA684FF6807302EA0303C3
:100A7000FB60FB794FEA0313FA6842EA0303FB6069
:100A8000BB79FA6842EA0303FB60044BFA681A6018
:100A900007F11407BD4680BC704700BF000001404D
:100AA00080B483B000AF0346FB71044BFA791A603F
:100AB00007F10C07BD4680BC704700BF1C002042F8
:100AC00080B487B000AF78600B46FB704FF0000336
:100AD0003B614FF00003FB604FF000037B614FF080
:100AE0000003BB607B68002B03DA354BDB697B615D
:100AF00002E0334B5B687B617B6803F470234FEA51
:100B00001343BB607B684FEA03434FEA13433B61E7
:100B10007B6803F44013B3F5401F0AD17B6923F0CF
:100B200070637B61264B264A526822F070625A60DD
:100B300028E07B6803F48013002B11D0BB684FF0D2
:100B4000030202FA03F3FB60FB686FEA03037A69AE
:100B500002EA03037B617B6943F070637B6111E010
:100B60007B684FEA53534FEA03133A6902FA03F3DF
:100B70006FEA03037A6902EA03037B617B6943F04E
:100B800070637B61FB78002B0BD07B684FEA53537B
:100B90004FEA03133A6902FA03F37A6942EA03035C
:100BA0007B617B68002B03DA054B7A69DA6102E02E
:100BB000034B7A695A6007F11C07BD4680BC704739
:100BC0000000014090B484B000AF02460B46FA71B9
:100BD000BB714FF00003FB60BB7903F003034FEAE6
:100BE00083034FF00F0202FA03F3FB601B4BBA7949
:100BF0004FEA9202D2B21949B8794FEA9000C0B2D6
:100C000000F1020051F82000F9686FEA010100EAE2
:100C1000010102F1020243F82210104BBA794FEAA7
:100C20009202D2B20D49B8794FEA9000C0B200F1F9
:100C3000020051F82000FC79B97901F003014FEA74
:100C4000810104FA01F140EA010102F1020243F8D4
:100C5000221007F11007BD4690BC7047000001400C
:100C600080B483B000AF7860034B7A681A6007F1F4
:100C70000C07BD4680BC7047DC00204280B400AF4A
:100C8000134B134A126842F001021A60104A104BCB
:100C90005968104B01EA030353600D4A0C4B1B6863
:100CA00023F0847323F480331360094B084A1268DD
:100CB00022F480221A60064B054A526822F4FE0292
:100CC0005A60034B4FF41F029A60BD4680BC7047C8
:100CD000001002400000FFF880B483B000AF7860DD
:100CE000134B134A126822F480321A60104B104AD8
:100CF000126822F480221A607B68B3F5803F03D02B
:100D0000B3F5802F07D00DE0094B094A126842F471
:100D100080321A6006E0064B054A126842F4A022AF
:100D20001A6000BF07F10C07BD4680BC704700BFCA
:100D30000010024080B582B000AF4FF000033B606E
:100D40004FF00003FB714FF00003BB714FF0310017
:100D500000F04EFB0346BB713B6803F101033B60AF
:100D60003B68B3F5A06F02D0BB79002BEED04FF0FB
:100D7000310000F03DFB0346002B03D04FF0010390
:100D8000FB7102E04FF00003FB71FB79184607F19D
:100D90000807BD4680BD00BF80B485B000AF0346E4
:100DA000FB714FF00003FB600A4B1B68FB60FB68A4
:100DB00023F0F803FB60FB794FEAC303FA6842EAC9
:100DC0000303FB60034BFA681A6007F11407BD4682
:100DD00080BC70470010024080B483B000AF03466F
:100DE000FB71044BFA791A6007F10C07BD4680BC11
:100DF000704700BF0000424280B485B000AF786009
:100E000039604FF00003FB600B4B5B68FB60FB68D5
:100E100023F47C13FB607A683B6842EA0303FA68B8
:100E200042EA0303FB60044BFA685A6007F11407B7
:100E3000BD4680BC704700BF0010024080B483B044
:100E400000AF0346FB71044BFA791A6007F10C07F7
:100E5000BD4680BC704700BF6000424280B485B090
:100E600000AF78604FF00003FB600A4B5B68FB60EB
:100E7000FB6823F00303FB60FA687B6842EA030324
:100E8000FB60044BFA685A6007F11407BD4680BC4A
:100E9000704700BF0010024080B400AF044B5B6895
:100EA000DBB203F00C03DBB21846BD4680BC7047D2
:100EB0000010024080B485B000AF78604FF00003AE
:100EC000FB600A4B5B68FB60FB6823F0F003FB6090
:100ED000FA687B6842EA0303FB60044BFA685A60D5
:100EE00007F11407BD4680BC704700BF00100240E8
:100EF00080B485B000AF78604FF00003FB600A4B10
:100F00005B68FB60FB6823F4E063FB60FA687B6866
:100F100042EA0303FB60044BFA685A6007F11407C6
:100F2000BD4680BC704700BF0010024080B485B051
:100F300000AF78604FF00003FB600B4B5B68FB6019
:100F4000FB6823F46053FB607B684FEAC303FA68D5
:100F500042EA0303FB60044BFA685A6007F1140786
:100F6000BD4680BC704700BF0010024080B483B013
:100F700000AF02460B46FA71BB71BB79002B09D05A
:100F80000D4B0D4A1278D1B2FA7941EA0202D2B27F
:100F90001A700BE0084B084A1278D1B2FA796FEA5E
:100FA0000202D2B201EA0202D2B21A7007F10C07B1
:100FB000BD4680BC704700BF0910024080B483B0BA
:100FC00000AF7860034B7A681A6007F10C07BD46E2
:100FD00080BC7047D800424280B485B000AF7860D2
:100FE0004FF00003FB600A4B5B68FB60FB6823F477
:100FF0004043FB60FA687B6842EA0303FB60044BF2
:10100000FA685A6007F11407BD4680BC704700BFFC
:101010000010024080B483B000AF0346FB710E4B5A
:101020004FF000021A700C4B4FF000021A70FB795F
:10103000012B02D0042B05D009E0074B4FF0010231
:101040001A7004E0044B4FF005021A7000BF07F15C
:101050000C07BD4680BC70472010024080B483B0AE
:1010600000AF0346FB71044BFA791A6007F10C07D5
:10107000BD4680BC704700BF8004424280B483B04C
:1010800000AF7860054B054A116A7A6841EA0202AE
:101090001A6207F10C07BD4680BC70470010024081
:1010A00080B483B000AF0346FB71044BFA791A6039
:1010B00007F10C07BD4680BC704700BF3C044242AC
:1010C00080B487B000AF78604FF000037B614FF0D1
:1010D00000033B614FF00003FB604FF00003BB6077
:1010E000514B5B6803F00C037B617B69042B07D0D9
:1010F000082B09D0002B35D17B684C4A1A6035E0AB
:101100007B684A4A1A6031E0474B5B6803F470130E
:101110003B61454B5B6803F48033FB603B694FEAFE
:10112000934303F102033B61FB68002B06D13B694B
:101130003F4A02FB03F27B681A6017E03A4B5B6898
:1011400003F40033002B06D03B69394A02FB03F25B
:101150007B681A600AE03B69344A02FB03F27B6851
:101160001A6003E07B68314A1A6000BF2E4B5B684F
:1011700003F0F0037B617B694FEA13137B612D4A17
:101180007B69D3181B78DBB2BB607B681A68BB68CD
:1011900022FA03F27B685A60234B5B6803F4E06336
:1011A0007B617B694FEA13237B61224A7B69D318F9
:1011B0001B78DBB2BB607B685A68BB6822FA03F21B
:1011C0007B689A60184B5B6803F460537B617B69B2
:1011D0004FEAD3237B61174A7B69D3181B78DBB2B4
:1011E000BB607B685A68BB6822FA03F27B68DA60EE
:1011F0000D4B5B6803F440437B617B694FEA93339B
:101200007B610D4A7B69D3181B78DBB2BB607B68BE
:10121000DA68BB68B2FBF3F27B681A6107F11C075E
:10122000BD4680BC704700BF0010024000127A002B
:1012300000093D00140000202400002080B483B089
:1012400000AF78600B46FB70FB78002B07D00B4B90
:101250000A4A51697A6841EA02025A6108E0074B7A
:10126000064A51697A686FEA020201EA02025A618B
:1012700007F10C07BD4680BC704700BF001002405C
:1012800080B483B000AF78600B46FB70FB78002B16
:1012900007D00B4B0A4A91697A6841EA02029A61C7
:1012A00008E0074B064A91697A686FEA020201EA90
:1012B00002029A6107F10C07BD4680BC704700BF6F
:1012C0000010024080B483B000AF78600B46FB7022
:1012D000FB78002B07D00B4B0A4AD1697A6841EAA8
:1012E0000202DA6108E0074B064AD1697A686FEAC0
:1012F000020201EA0202DA6107F10C07BD4680BC76
:10130000704700BF0010024080B483B000AF786027
:101310000B46FB70FB78002B07D00B4B0A4AD168B9
:101320007A6841EA0202DA6008E0074B064AD168AF
:101330007A686FEA020201EA0202DA6007F10C073A
:10134000BD4680BC704700BF0010024080B483B02F
:1013500000AF78600B46FB70FB78002B07D00B4B7F
:101360000A4A11697A6841EA02021A6108E0074BE9
:10137000064A11697A686FEA020201EA02021A61FA
:1013800007F10C07BD4680BC704700BF001002404B
:1013900080B483B000AF0346FB71044BFA791A6046
:1013A00007F10C07BD4680BC704700BF40044242B5
:1013B00080B483B000AF0346FB71044BFA791A6026
:1013C00007F10C07BD4680BC704700BF4C0042428D
:1013D00080B483B000AF0346FB71044BFA791A70F6
:1013E00007F10C07BD4680BC704700BF07100240E4
:1013F00080B487B000AF0346FB714FF00003FB6081
:101400004FF000037B614FF00003FB74FB794FEA60
:101410005313DBB2FB60FB68012B03D1144B1B6839
:101420007B6109E0FB68022B03D1114B1B6A7B61D6
:1014300002E00F4B5B6A7B61FB7903F01F03FB60EB
:10144000FB687A6922FA03F303F00103DBB2002B95
:1014500003D04FF00103FB7402E04FF00003FB7474
:10146000FB7C184607F11C07BD4680BC704700BFD7
:101470000010024080B400AF044B044A526A42F0AC
:1014800080725A62BD4680BC704700BF00100240A7
:1014900080B485B000AF0346FB714FF00003FB73CF
:1014A0000A4B9A68FB7902EA0303002B03D04FF042
:1014B0000103FB7302E04FF00003FB73FB7B184654
:1014C00007F11407BD4680BC704700BF0010024002
:1014D00080B483B000AF0346FB71044BFA791A70F5
:1014E00007F10C07BD4680BC704700BF0A100240E0
:1014F0004FF0FF0C1CEAD0521EBF1CEAD15392EAF7
:101500000C0F93EA0C0F6FD01A4480EA010C4002D2
:1015100018BF5FEA41211ED04FF0006343EA50102C
:1015200043EA5111A0FB01310CF00040B1F5000F6E
:101530003EBF490041EAD3715B0040EA010062F11D
:101540007F02FD2A1DD8B3F1004F40EBC25008BF07
:1015500020F00100704790F0000F0CF0004C08BF25
:1015600049024CEA502040EA51207F3AC2BFD2F1F2
:10157000FF0340EAC250704740F400004FF0000300
:10158000013A5DDC12F1190FDCBF00F0004070473A
:10159000C2F10002410021FA02F1C2F1200200FA78
:1015A00002FC5FEA310040F1000053EA4C0308BF3F
:1015B00020EADC70704792F0000F00F0004C02BF90
:1015C000400010F4000F013AF9D040EA0C0093F00B
:1015D000000F01F0004C02BF490011F4000F013B65
:1015E000F9D041EA0C018FE70CEAD15392EA0C0FD3
:1015F00018BF93EA0C0F0AD030F0004C18BF31F03E
:10160000004CD8D180EA010000F00040704790F013
:10161000000F17BF90F0004F084691F0000F91F0B7
:10162000004F14D092EA0C0F01D142020FD193EA7D
:101630000C0F03D14B0218BF084608D180EA010005
:1016400000F0004040F0FE4040F40000704740F0E1
:10165000FE4040F4400070474FF0FF0C1CEAD052AF
:101660001EBF1CEAD15392EA0C0F93EA0C0F69D00B
:10167000A2EB030280EA010C49024FEA402037D076
:101680004FF0805343EA111143EA10130CF000406D
:101690008B4238BF5B0042F17D024FF4000C8B425D
:1016A00024BF5B1A40EA0C00B3EB510F24BFA3EB3D
:1016B000510340EA5C00B3EB910F24BFA3EB91030D
:1016C00040EA9C00B3EBD10F24BFA3EBD10340EA67
:1016D000DC001B0118BF5FEA1C1CE0D1FD2A3FF6AD
:1016E00050AF8B4240EBC25008BF20F00100704762
:1016F0000CF0004C4CEA50207F32C2BFD2F1FF0305
:1017000040EAC250704740F400004FF00003013A35
:1017100037E792F0000F00F0004C02BF400010F4D9
:10172000000F013AF9D040EA0C0093F0000F01F0ED
:10173000004C02BF490011F4000F013BF9D041EA0F
:101740000C0195E70CEAD15392EA0C0F08D1420242
:101750007FF47DAF93EA0C0F7FF470AF084676E715
:1017600093EA0C0F04D14B023FF44CAF08466EE7EE
:1017700030F0004C18BF31F0004CCAD130F00042BC
:101780007FF45CAF31F000437FF43CAF5FE700BF14
:1017900000A24A040000000000000000010203044F
:1017A0000607080900000000010203040102030407
:0817B0000607080902040608FF
:040000050800025598
:00000001FF
